:100000000C9434000C9449000C9449000C94490061
:100010000C9449000C9449000C9449000C9449003C
:100020000C9449000C9449000C9449000C9449002C
:100030000C9449000C9449000C9449000C9449001C
:100040000C9449000C9449000C9449000C9449000C
:100050000C9449000C9449000C9449000C944900FC
:100060000C9449000C94490011241FBECFEFD8E036
:10007000DEBFCDBF11E0A0E0B1E0EEE6F1E002C0EE
:1000800005900D92AA30B107D9F70E9482000C9416
:10009000B5000C940000CF93DF93CDB7DEB72A975D
:1000A0000FB6F894DEBF0FBECDBF2AE0E0E0F1E06E
:1000B000DE01119601900D922A95E1F721E030E0E2
:1000C0002C0F3D1F820F931FFC01808188B92A9657
:1000D0000FB6F894DEBF0FBECDBFDF91CF9108956C
:1000E0008FEF87B908958AB18B7F8AB98BB184600D
:1000F0008BB9089589B18695869591E0892781709D
:1001000090E008950E9470000E94730000E010E0EB
:10011000C0E0D0E00E947A00892BA1F00115110502
:1001200089F48FE39CE90197F1F700C000000E9479
:100130007A00892B61F02196CA30D10559F001E08F
:1001400010E00FC00E947A00892B49F00AC001E03C
:1001500010E007C001E010E0C0E0D0E002C000E025
:0E01600010E0CE010E944B00D5CFF894FFCFE7
:0A016E007E306D79335B5F707F7B9C
:00000001FF
