:100000000C9434000C943E000C943E000C943E0082
:100010000C943E000C943E000C943E000C943E0068
:100020000C943E000C943E000C943E000C943E0058
:100030000C943E000C943E000C943E000C943E0048
:100040000C943E000C943E000C943E000C943E0038
:100050000C943E000C943E000C943E000C943E0028
:100060000C943E000C943E0011241FBECFEFD8E04C
:10007000DEBFCDBF0E944A000C9463000C940000C8
:1000800084B5836884BD85B5846085BD8AB180648C
:100090008AB908950E94400080E487BD2FEF88E070
:1000A0009DE3215080409040E1F700C0000080E8CF
:1000B00087BD2FEF88E09DE3215080409040E1F71D
:0A00C00000C00000E9CFF894FFCF64
:00000001FF
