:100000000C9434000C9449000C9449000C94490061
:100010000C9449000C9449000C9449000C9449003C
:100020000C9449000C9449000C9449000C9449002C
:100030000C9449000C9449000C9449000C9449001C
:100040000C9449000C9449000C9449000C9449000C
:100050000C9449000C9449000C9449000C944900FC
:100060000C9449000C94490011241FBECFEFD8E036
:10007000DEBFCDBF11E0A0E0B1E0E2EAF1E002C0F6
:1000800005900D92AA30B107D9F70E947F000C9419
:10009000CF000C940000CF93DF93CDB7DEB72A9743
:1000A0000FB6F894DEBF0FBECDBF2AE0E0E0F1E06E
:1000B000DE01119601900D922A95E1F721E030E0E2
:1000C0002C0F3D1F820F931FFC01808188B92A9657
:1000D0000FB6F894DEBF0FBECDBFDF91CF9108956C
:1000E0008FEF87B908958BB184608BB9089589B17A
:1000F0008695869591E08927817090E008950E9409
:1001000070000E947300C0E0D0E00E947700892B4D
:10011000E1F32FE788E391E0215080409040E1F740
:1001200000C000000E947700892B79F3AE014F5F79
:100130005F4F9A01ADECBCEC0E94C000EC01D6957B
:10014000C795D695C795D695C795CE01880F991FA7
:10015000CC0FDD1FCC0FDD1FCC0FDD1FC80FD91F4B
:10016000CA018C1B9D0BEC010E944B009FEF29E6FE
:1001700088E1915020408040E1F700C00000C5CFE9
:10018000A29FB001B39FC001A39F700D811D1124D8
:10019000911DB29F700D811D1124911D0895F89439
:0201A000FFCF8F
:0A01A2007E306D79335B5F707F7B68
:00000001FF
