:100000000C9434000C943E000C943E000C943E0082
:100010000C943E000C943E000C943E000C943E0068
:100020000C943E000C943E000C943E000C943E0058
:100030000C943E000C943E000C943E000C943E0048
:100040000C943E000C943E000C943E000C943E0038
:100050000C943E000C943E000C943E000C943E0028
:100060000C943E000C943E0011241FBECFEFD8E04C
:10007000DEBFCDBF0E944A000C946F000C940000BC
:1000800084B5836884BD85B5816085BD8AB180648F
:100090008AB908950E94400080E090E00BC087BDBF
:1000A0002FEF30E742E0215030404040E1F700C000
:1000B000000001968F3F910594F38FEF90E00BC005
:1000C00087BD2FEF30E742E0215030404040E1F75C
:1000D00000C0000001971816190694F3DDCFF894BC
:0200E000FFCF50
:00000001FF
