:100000000C9434000C943E000C943E000C943E0082
:100010000C943E000C943E000C943E000C943E0068
:100020000C943E000C943E000C943E000C943E0058
:100030000C943E000C943E000C943E000C943E0048
:100040000C943E000C943E000C943E000C943E0038
:100050000C943E000C943E000C943E000C943E0028
:100060000C943E000C943E0011241FBECFEFD8E04C
:10007000DEBFCDBF0E944A000C9458000C940000D3
:1000800084B5836884BD85B5846085BD8AB180648C
:100090008AB908950E9440008DE487BD2FE78AE168
:1000A00096E0215080409040E1F700C00000F4CF7E
:0400B000F894FFCFF2
:00000001FF
