:100000000C9434000C9449000C9449000C94490061
:100010000C9449000C9449000C9449000C9449003C
:100020000C9449000C9449000C9449000C9449002C
:100030000C9449000C9449000C9449000C9449001C
:100040000C9449000C9449000C9449000C9449000C
:100050000C9449000C9449000C9449000C944900FC
:100060000C9449000C94490011241FBECFEFD8E036
:10007000DEBFCDBF11E0A0E0B1E0E2E5F1E002C0FB
:1000800005900D92AA30B107D9F70E9483000C9415
:10009000A7000C9400008FEF87B98AB187608AB9F6
:1000A0000895CF93DF93CDB7DEB72A970FB6F894B4
:1000B000DEBF0FBECDBF2AE0E0E0F1E0DE01119629
:1000C00001900D922A95E1F72BB1287F2BB94BB106
:1000D00021E030E002C0220F331F6A95E2F7242BA3
:1000E0002BB921E030E02C0F3D1F820F931FFC0144
:1000F000808188B92A960FB6F894DEBF0FBECDBFB7
:10010000DF91CF9108950E944B0060E085E090E080
:100110000E9451008FE097E20197F1F700C00000C4
:1001200061E084E090E00E9451008FE097E2019747
:10013000F1F700C0000062E089E090E00E94510009
:100140008FE097E20197F1F700C00000DECFF8944E
:02015000FFCFDF
:0A0152003F065B4F666D7D077F6F6F
:00000001FF
