S01700004763634170706C69636174696F6E312E737265635B
S11300000C9434000C943E000C943E000C943E007E
S11300100C943E000C943E000C943E000C943E0064
S11300200C943E000C943E000C943E000C943E0054
S11300300C943E000C943E000C943E000C943E0044
S11300400C943E000C943E000C943E000C943E0034
S11300500C943E000C943E000C943E000C943E0024
S11300600C943E000C943E0011241FBECFEFD8E048
S1130070DEBFCDBF0E9447000C945C000C940000CE
S113008084B1806284B98BB184608BB908950E9475
S113009040004A990DC085B1806285B92FE986E890
S11300A091E0215080409040E1F700C00000F1CF82
S10F00B085B18F7D85B9EDCFF894FFCFAA
S9030000FC
