S0140000536576656E7365676D656E742E737265631C
S11300000C9434000C9449000C9449000C9449005D
S11300100C9449000C9449000C9449000C94490038
S11300200C9449000C9449000C9449000C94490028
S11300300C9449000C9449000C9449000C94490018
S11300400C9449000C9449000C9449000C94490008
S11300500C9449000C9449000C9449000C944900F8
S11300600C9449000C94490011241FBECFEFD8E032
S1130070DEBFCDBF11E0A0E0B1E0EAE6F1E002C0EE
S113008005900D92AA30B107D9F70E9473000C9421
S1130090B3000C940000CF93DF93CDB7DEB72A975B
S11300A00FB6F894DEBF0FBECDBF2AE0E0E0F1E06A
S11300B0DE01119601900D922A95E1F721E030E0DE
S11300C02C0F3D1F820F931FFC01808188B92A9653
S11300D00FB6F894DEBF0FBECDBFDF91CF91089568
S11300E08FEF87B908950E947000C0E0D0E002C08D
S11300F0C0E0D0E09E01ADECBCEC0E94A40096955B
S1130100879596958795969587959C01220F331F21
S1130110880F991F880F991F880F991F820F931FAB
S11301209E01281B390BC9010E944B003FEF89E651
S113013098E1315080409040E1F700C000002196E2
S1130140CA30D105B9F6D4CFA29FB001B39FC00184
S1130150A39F700D811D1124911DB29F700D811DEF
S10D01601124911D0895F894FFCFB7
S10D016A7E306D79335B5F707F7B9C
S9030000FC
