:100000000C9434000C943E000C943E000C943E0082
:100010000C943E000C943E000C943E000C943E0068
:100020000C943E000C943E000C943E000C943E0058
:100030000C943E000C943E000C943E000C943E0048
:100040000C943E000C943E000C943E000C943E0038
:100050000C943E000C943E000C943E000C943E0028
:100060000C943E000C943E0011241FBECFEFD8E04C
:10007000DEBFCDBF0E9440000C9456000C940000DF
:100080008AB188608AB98AB18B7F8AB94A9904C0DB
:100090008BB188608BB903C08BB1877F8BB987EA3E
:1000A00091E60197F1F700C00000F0CFF894FFCF80
:00000001FF
